:020000040800F2
:100000000050002071020008B9020008B90200087F
:10001000B9020008B9020008B90200080000000097
:10002000000000000000000000000000B90200080D
:10003000B902000800000000B9020008B902000877
:10004000B9020008B9020008B9020008B9020008A4
:10005000B9020008B9020008B9020008B902000894
:10006000B9020008B9020008B9020008B902000884
:10007000D1230008F9230008B90200082124000850
:10008000B9020008B9020008B9020008511A0008B4
:10009000611A0008B9020008B9020008B902000894
:1000A000B9020008B9020008B9020008B902000844
:1000B000492400080525000800000000B9020008D6
:1000C000B90200080000000000000000B9020008AA
:1000D00000000000B9020008B9020008000000009A
:1000E000B9020008B90200089D1A0008B902000808
:1000F000B9020008B9020008B9020008B9020008F4
:10010000B9020008B9020008B9020008B9020008E3
:10011000B9020008B9020008B9020008B9020008D3
:10012000B9020008B9020008B9020008B9020008C3
:10013000000000004D61696E00500020F91A0008AF
:10014000B9020008B9020008B9020008B9020008A3
:10015000B9020008000000000000000000000000DC
:1001600000000000B9020008B90200080000000009
:10017000B9020008B9020008B9020008B902000873
:10018000B9020008B9020008B9020008B902000863
:10019000B9020008B9020008B9020008B902000853
:1001A000B9020008B9020008D1230008F9230008A9
:1001B000B902000821240008B9020008B9020008A9
:1001C000B9020008511A0008611A0008B9020008B3
:1001D000B9020008B9020008B9020008B902000813
:1001E000B9020008B90200084924000805250008E2
:1001F00000000000B9020008B90200080000000079
:1002000000000000B902000800000000B902000868
:10021000B902000800000000B9020008B902000895
:100220009D1A0008B9020008B9020008B9020008C6
:10023000B9020008B9020008B9020008B9020008B2
:10024000B9020008B9020008B9020008B9020008A2
:10025000B9020008B9020008B9020008B902000892
:10026000B9020008B9020008000000004D61696E83
:100270000C480D490D4A92F0000F03D0043A835800
:100280008B50FBD10A480B494FF00002884202D044
:1002900040F8042BFAE74FF00000D0F800D000F04F
:1002A000CDF97047603200080000002050010000C6
:1002B000500100202C0E0020FEE7000070B504461F
:1002C0000E461D4D0AE0062B04D803F1FF332B70B8
:1002D00002F00AF9237803F1010323702278AB18A6
:1002E0001B79002B25D01F2BEDD93178A3F12003EA
:1002F000DBB21248C05C814210D300F101008142A0
:1003000006D102F1010222704FF00000307070BD82
:1003100001F1010131704FF0000070BD084A32F860
:10032000133001F1010232705B189BB2054AD05CB8
:1003300070BD4FF4805070BD000000209C2B000861
:10034000DC2A0008FC2B00082DE9F04104460D468C
:10035000472818D8DFF838804FF000060B4F15F00B
:10036000800F14BF98F82610314620463A7833465D
:1003700002F080F904F10904E4B2472C03D84FEAF3
:100380004505EDB2EBE7BDE8F08100BF7209002042
:100390000000002070B584B01F4D204C2846214637
:1003A000FFF78CFF86B24FF00000F1B2FFF7CCFFF1
:1003B0002B788DF80F3023788DF80E304FF0010434
:1003C0000DF10F000DF10E01FFF778FFC1B22046CD
:1003D000FFF7BAFF04F10104E4B2092CF0D1B6F53D
:1003E000805F17D14FF0030300930D484FF00B01CE
:1003F0004FF0B0024FF0000300F011FD094B1B78E5
:1004000033B14FF00003044A1370044A137001E043
:1004100002F006F904B070BD580100205701002019
:10042000040700205501002030B490F9003013F18A
:10043000090F04D14FF00000144B187023E0144D45
:1004400001F03F0385F82630C1F38011114B19707C
:1004500005F105054FF00003D9B2C25C1AB154B2E0
:1004600014F1090F07D10A4B59184FF000038B7193
:100470004FF0010007E005F8012F03F10103202BE5
:10048000EAD14FF0010030BC704700BF5601002098
:10049000000000205501002008B502F091F94FF04E
:1004A0000003044A1370044A13704FF00302034B15
:1004B0001A7008BD580100205701002000000020DC
:1004C000194B4FF001121A601B6813F4003F05D15D
:1004D000154A00BF136813F4003FFAD0134A144BB7
:1004E0001A604FF0110203F57E6303F11C031A60DA
:1004F000A3F580531A6842F080721A601B6813F0EB
:10050000007F05D1084A00BF136813F0007FFAD0BE
:10051000084A074B1A6000BF00BF00BF00BF00BF02
:1005200000BF00BF00BF7047001002400024590008
:10053000041002400A24590040F23D32184B1A6060
:100540004FF00002A3F58433A3F10C031A60154A9F
:10055000A3F108031A6002F1504202F5980202F575
:100560005042A3F104031A604FF0070203F58063C1
:1005700003F10C031A600C4AA3F108031A6002F19C
:10058000FE4202F5030202F54052A3F104031A6091
:100590004FF01133054A1360A2F104021360704753
:1005A000181002401141444411119191041001406E
:1005B0000278054B02F00301595CC2F301129B5C07
:1005C00001EB031303707047A42D000838B59DF9A3
:1005D0001040002B08DD184D2818007903F1FF3377
:1005E0005BB2002BF8D10AE0002B08DA124D281874
:1005F00090F8580003F101035BB2002BF7D1002CF7
:1006000009DD0D4B181890F8AC0004F1FF3464B20A
:10061000002CF7D10AE0002C08DA074B181890F8E4
:10062000000104F1010464B2002CF7D14FF0000383
:1006300002F020F838BD00BFA42D000870B5354B7E
:100640001B783BB94FF00102334B1A7002F1F902EB
:10065000324B1A7200F0E6FD01F072FAFFF730FF3C
:10066000FFF76AFF02F074F800F064F801F092FD01
:1006700001F068F900F0E6FD294C2A4E2A4D01F000
:1006800015FA00F071F8237813F0010F04D023F06D
:100690000103237002F05EF9237813F0020F06D0F5
:1006A00023F00203237000F0DDFD00F065FB2378EA
:1006B00013F0040F1CBF23F004032370237813F0FE
:1006C000080F0DD023F008032370337843B12B7843
:1006D00033B9164B1A78D2F1010238BF00221A70D2
:1006E000237813F0100F06D023F0100323702B781B
:1006F0000BB1FFF74FFE237813F0200FBFD023F08C
:10070000200323700A4B1B78002BB8D001F026FC85
:10071000B5E700BF01FC0008540100206000002084
:10072000710900206C0B0020560100207209002086
:10073000280E00204FF00102064B9A71064B074924
:100740001961074959611A72064A1A604FF4077213
:10075000DA8070477C030020A40500209D0C00086F
:10076000C90A00085C01002008B50448044900F0EB
:1007700061FC0448044900F0A7FB08BD06080020FE
:10078000A4050020040700207C03002040B901F0EC
:100790000F0303F103034FEA111101F1010107E017
:1007A00001F00F0303F103034FEA111101F10901F5
:1007B00001EB81014FEA011191FBF3F1014B19703B
:1007C000704700BF28000020F0B4134B1C7813487A
:1007D0004FF000054FF0A80CA0F1A707104E12E053
:1007E00013F8011F01FB04F14FEA11113F2928BF43
:1007F0003F2102F8011F9842F2D105F1010500F1F5
:10080000A800032D06D00CFB05F202F1FF32D3192C
:100810009219E5E7F0BC7047280000201B0A002071
:10082000740B0020437843B98378202B08D1C0781B
:10083000292814BF0020012070474FF000007047A6
:100840004FF00000704700BF08B5034600F10600F6
:100850005979FFF7E9FD10B101F0CAFE08BD01F0BA
:10086000DFFE08BD10B51748174C04604FF01303A6
:10087000838000F017FB4FF070036371134B1A680D
:1008800004F10B0304F1060002F00F0103F8011D4F
:100890004FEA12128342F7D10D4B1A680D4B04F147
:1008A0000B0402F00F0103F8011D4FEA1212A342DC
:1008B000F7D1054B4FF00C021A744FF001025A7435
:1008C00010BD00BF7C030020880300203001000819
:1008D000303100089803002000F00F034FEA101099
:1008E00000EBC000082B94BFC0180830C0B270479E
:1008F00070B50C461C4B1B78A3B91C4B1B781BB95D
:10090000FFF7EAFF06460EE0A0F12406F6B2472EF6
:1009100002D8174B9E5D06E0A0F16C00C0B207281C
:1009200001D970BD0646134D304621462A784FF056
:10093000000301F09FFE2A78D2F1010238BF0022A5
:1009400014F0040F06D0304621464FF0000301F0AA
:1009500091FE70BD14F0080F05D030464FF0000135
:100960000B4601F087FE70BD79030020270E0020A2
:1009700040300008290E002070B503460D460E4A8F
:1009800012784F2A16D84FF001000C4908700C4E0F
:10099000B05C1946FFF7ACFF074C237803F1010365
:1009A000DBB22370F05C2946FFF7A2FF237803F146
:1009B0000103237070BD00BF7A030020790300207B
:1009C00088300008F0B4124B1D784FF0A80303FBE9
:1009D00005F303F1FF330F4818180F4959184FF06A
:1009E0000003DFF830C04FF0A8070B4E002D0CBFFE
:1009F0003A460022D21810F8014F0CF8024011F8C4
:100A0000014FB45403F10103A82BEFD1F0BC7047A0
:100A10007209002074090020740B0020F8B5064606
:100A20004FF0000425464FF00107204631462A4684
:100A30002B4601F01FFE204629463A462B4601F080
:100A400019FE04F10104E4B2502CEED14FF0000382
:100A5000044A1370044A1370044A1370044A137052
:100A6000F8BD00BF270E00206C0B0020290E0020CF
:100A70007209002008B5837923B9C379202B01D1ED
:100A800000F0D8FB08BD00BFF0B404464FF00100F1
:100A90004FF000030B4D1E464FF00307022B02D10F
:100AA000A2787F2A09D0E15CEA5C914206BF01335B
:100AB000DBB23046052B01D902E03B460028EDD1E0
:100AC000F0BC70475831000838B50C46154608464A
:100AD000FFF7A8FEC0B12379092B04D1204629468F
:100AE000FFF7B2FE38BD002B2AD16379702B04D1F9
:100AF00020462946FFF7B6FE38BD712B20D120468F
:100B00002946FFF7B7FF38BD2046FFF7BDFFB8B154
:100B10000C4B1B780C4883730C4B1A6800F11403C0
:100B200000F1100002F00F0103F8011D4FEA12124C
:100B30008342F7D1064B074A1A604FF011029A80A0
:100B400038BD00BF02FC000828000020303100083A
:100B50007C0300202C0000204FF00003024A137099
:100B6000024A1370704700BF7A0300207903002007
:100B700000B583B00B46E1B901F0EAFD4FF0000388
:100B80003B4A13703B4A13703B4A13703B4A137045
:100B90004FF010023A4B1A703A4B1B7823B94FF0C2
:100BA0000102394B1A7061E04FF00002364B1A70A7
:100BB0005CE0012904D14FF000022D4B1A7055E082
:100BC000022904D14FF00102294B1A704EE003298B
:100BD00004D14FF001022C4B1A7047E0042904D1D4
:100BE0004FF00002284B1A7040E010290CD1274B1F
:100BF0001B78009326484FF00B014FF0B0024FF0E6
:100C0000100300F00CF931E0A1F12002D2B21D2A4C
:100C100018D8204A1278AAB94FF490711E4A116070
:100C200003F00101154A1170C3F38001124A1170DB
:100C3000C3F3C0010F4A117013F0100F16D0FFF765
:100C4000C1FE13E07D2B04D14FF01100FFF7E6FE4B
:100C50000CE07E2B04D14FF02200FFF7DFFE05E011
:100C60007F2B03D14FF03300FFF7D8FE03B000BD58
:100C7000270E00206C0B0020290E00207209002096
:100C80002800002001FC0008540100207803002007
:100C900004070020560100204801002030B583B031
:100CA00014461D46B02941D1FFF756FF102C0CD138
:100CB0002E4B1D7000952E484FF00B014FF0B002E7
:100CC0004FF0100300F0ABF84DE01E2C07D14FF0B1
:100CD00000002946FFF75AFDFFF776FD43E01F2C81
:100CE00007D14FF001002946FFF750FDFFF76CFDDB
:100CF00039E0A4F16803DBB2072B10D81D4B1B7839
:100D000033B904F11800C0B22946FFF7F1FD2AE01B
:100D100004F10400C0B22946FFF7EAFD23E014BB4A
:100D20004FF000002946FFF723FF1CE0902908D16F
:100D3000FFF712FF882C16D820462946FFF7D8FD6A
:100D400011E0802909D1FFF707FF782C0BD8204646
:100D500005F00C01FFF7CCFD05E0922903D1104608
:100D60001946FFF709FE03B030BD00BF780300202D
:100D700004070020270E002030B585B0104C114D1F
:100D800016E003AB009320460DF10F010DF10E02AA
:100D90000DF10D0300F051F89DF80F109DF80E2095
:100DA0009DF80D309DF80C000090284600F037F8B3
:100DB000204600F013F80028E3D105B030BD00BF95
:100DC000BC0500200407002090F8012190F80031B4
:100DD00082EA0300803818BF0120704790F8002194
:100DE00090F80131D01A18BF0120704790F80131F6
:100DF000C154013380F80131704790F80021034657
:100E0000805C013283F80021704790F80131C154B1
:100E10000133DBB2C254013380F80131704730B581
:100E200090F801419DF80C500155011904344A70A5
:100E30008B70CD7080F8014130BD10B590F8004145
:100E4000045D0C7090F8001141184978117090F809
:100E50000021821892781A7090F80031C318DA785D
:100E6000029B1A7090F80031043380F8003110BDF5
:100E700000F14003DBB21F2B0ED9F2280ED0EF2871
:100E80000ED9A0F1F102534243EB0203F32814BF41
:100E9000184643F001007047012070470220704758
:100EA00002207047002307490268C95CD15401330E
:100EB000052BF8D10268B0F90430D318F72203F8F3
:100EC000012C70476031000873B58B7905460C46DC
:100ED000002B30D142E02368194611F8012B216024
:100EE000481C5B782060881C4E782060A0880338FE
:100EF00080B201B20029A08003DD009628460421BB
:100F000003E028B9009628460721FFF788FF12E082
:100F1000B1F1FF3F04D1002600962846073107E0D3
:100F200011F1020F07D100260096284607313346FB
:100F3000FFF775FFA680B4F90430BBB12846FFF770
:100F400043FF0028C7D111E0A3882846013BA380B6
:100F5000236813F8011B2360FFF748FFB4F904303E
:100F600023B12846FFF730FF0028EDD17CBD10F0FB
:100F7000800F70B506460C4634D0F72804D90D69A9
:100F8000087A0022314627E04B7B802B11D18A88DA
:100F90007AB10B68F7219954013292B26369A28049
:100FA000207A216898470023A3800123F72E6373DA
:100FB0003FD0F02E05D123681E700123A38080232B
:100FC00023E03046FFF754FFF02E024607D930B930
:100FD00060722569207A31461346A84770BD667253
:100FE000227311E04B7B802B11D18B880A68D0547F
:100FF000CA8801339BB29A428B801AD14B69087A16
:10100000096898470023A3800123637370BD4A7A5F
:101010007AB1CA18507201330A7BDBB29A424B7321
:1010200007D20D69087AE37A497AA27AA8470123A0
:10103000637370BD2DE9FF4105460C468EE003AB9E
:1010400000930DF10E020DF10D0328460DF10F0175
:10105000FFF7F3FE9DF80F30277A07EB131703F025
:101060000F039A1ED2B2012AFFB28DF80F3003D9B6
:10107000072B13D90F2B6CD09DF80E8001236373BF
:1010800084F809804046FFF7F3FE26692073414645
:1010900038469DF80D209DF80C303AE0042B01D025
:1010A000072B25D1002363728033A28863739DF8D8
:1010B0000E102368995423689DF80D10013292B2E6
:1010C0009954236801329DF80C1092B299549DF8FE
:1010D0000F30013292B2072BA28002D0E3889342F4
:1010E0003CD863693846216898470023A3802BE0E9
:1010F000052B10D19DF80E10F72906D17B33002661
:1011000063736672A288236815E000222669384658
:101110001346B04722E0062B19D17A336373A288B5
:1011200023689DF80E1000266672995423680132D8
:101130009DF80D1092B29954013292B2A280636967
:10114000384621689847A6800123637306E00F2B79
:1011500004D19DF80E002146FFF709FF2846FFF74E
:101160003DFE00287FF46BAFBDE8FF8103781BB91B
:10117000022202701846704713F0800F07D1013B1E
:10118000DBB203703BB98033037001207047802BC2
:1011900003D080230370002070470020704703783D
:1011A000ABB113F0800F02D1002303700FE0802B4E
:1011B00003D18039017000207047013BDBB2802BE6
:1011C00003704FF0000304D10370012070471846EC
:1011D0007047184670470000074A084910B54FF499
:1011E000807413680C6010B143F0010301E023F038
:1011F0000103136010BD00BF046C0040007000408C
:1012000008B500F027F8044B00BF013BFCD1034AAE
:10121000034B1A6000BFFDE70048E8010400FA052F
:101220000CED00E0024B4FF0C0521A60704700BF57
:101230001C10024010B50120FFF7CEFFBDE81040A2
:10124000FFF7DEBF024B4FF480621A60704700BFA9
:1012500010080140024B4FF080621A60704700BFD7
:10126000100801400A4B1A780AB1013A1A70094A6B
:10127000138863B1013B9BB2138043B9064B012035
:101280001A8892B242F040021A8001F0E5B9704724
:10129000080900204800002050010020144B2DE9CF
:1012A000F0411E88044616F001060D4690461CD0FB
:1012B000002613E02046FFF7A0FD01360746204632
:1012C000F6B2FFF78BFD38B12046FFF796FD00021E
:1012D0003F180136BFB2F6B245F8047B464504D24A
:1012E0002046FFF77BFD0028E4D13046BDE8F081C1
:1012F0005001002010B50F48FFF770FDC0B10E4C33
:101300002378ABB90B480D494022FFF7C7FFC0B2A5
:1013100070B10B4BC0221A6058600A4B1A6802F079
:10132000300282F4C66282F001021A60C823237080
:1013300010BD00BF040700200809002080610040A4
:1013400010600040045C004070B506460C4615462F
:1013500009E054F8042B304692B2D1B2120AFFF7DA
:1013600054FD023D2DB2012DF3DC05D1217830462C
:10137000BDE87040FFF73ABD70BD000008B5064BF0
:1013800006481A6806499205920DFFF7DDFF054BE6
:1013900001221A7008BD00BF2C6000400608002022
:1013A0000062004009090020194A1378812B03D0FC
:1013B000822B06D0802B23D1164B00221A6040329C
:1013C00012E0137903F07F03013BDBB2022B17D845
:1013D000114AD35CA3B1114A128813420D4B0CBFC2
:1013E000002201221A60402243F8802C3E3A43F842
:1013F0007C2C0B4B1A6802F0300282F44C7205E030
:10140000074B1A6802F0300282F444721A60704787
:10141000C0060020806000406531000850010020B7
:10142000005C0040164B99781A7909BB1B78022B97
:101430001ED102F07F03012B02D0022B18D104E051
:10144000104A138823F0020303E00E4A138823F0A6
:1014500004031B041B0C13800B4B40221A60403A00
:101460005A600A4B1A6802F0300282F44C7205E0AE
:10147000064B1A6802F0300282F444721A60704718
:10148000C00600205001002000600040005C0040C9
:10149000164B9A7812BB1A78022A1FD11B7903F0D7
:1014A0007F03012B02D0022B18D105E0104B1A88C4
:1014B00092B242F0020204E00D4B1A8892B242F05E
:1014C00004021A800B4B40221A60403A5A600A4BC1
:1014D0001A6802F0300282F44C7205E0064B1A687A
:1014E00002F0300282F444721A607047C006002095
:1014F0005001002000600040005C0040094B9A78D9
:10150000094B62F07F029A70084B40221A60403A01
:101510005A60074B1A6802F0300282F44C721A606B
:10152000704700BFC0060020480000200060004057
:10153000005C0040094B1A88094B02F001021A6056
:10154000402243F8802C3F3A43F87C2C054B1A6824
:1015500002F0300282F44C721A6070475001002091
:1015600080600040005C004008B52E4B9B78012B4A
:1015700006D92D4B1A6802F0300282F444724EE014
:101580002A4A2B4B2DD12B49C0200860106843F20A
:10159000300100EA010181F4C46181F001011160B0
:1015A000254A4FF4807111604FF40841516023497E
:1015B00043F23002086800EA020282F4585282F0D4
:1015C00002020A601A88002092B242F001021A80D8
:1015D0001A8822F040021204120C1A8001F03CF822
:1015E00012E04FF4805109681160144943F232024D
:1015F000086800EA02020A601A8822F00102120456
:10160000120C1A8001F020F80D4B40221A60403A6B
:101610005A60054B1A6802F0300282F44C721A606C
:1016200008BD00BFC0060020005C0040045C004014
:10163000500100201060004028600040085C00401D
:10164000006000400A4B1B8813F02002094B18BFB2
:1016500001221A60084B40221A603F3A5A60074B39
:101660001A6802F0300282F44C721A60704700BFB0
:10167000500100208060004000600040005C00409D
:101680000C4B9B78012B0C4B1A8806BF92B242F090
:10169000200202F020021A80084B40221A60403AD1
:1016A0005A60074B1A6802F0300282F44C721A60DA
:1016B000704700BFC00600205001002000600040BD
:1016C000005C0040224B2DE9F0479C88994614F4B9
:1016D000004F3AD11F4AE3B21668402B28BF40237F
:1016E000002218E01C4D57007D191C4F0232B7F83C
:1016F00002C0D2B20FFA8CF806EB080A9AF801A0E1
:1017000016F808804FEA0A2AD0440CF1020CC5F8FA
:101710000080A7F802C09A42E4D3E41A3F2BA9F84C
:10172000044003D80A4A4FF0FF34948010B10A4AAB
:1017300042F810100A4A402111605360094B1A68A0
:1017400002F0300282F44C721A60BDE8F08700BFEC
:101750004800002000070020806000405001002069
:1017600000600040005C004008B50C4B9A780C4BC0
:1017700019688A4218BF1A6000200146FFF7A2FFCD
:10178000084B80221A604FF408425A60064B1A68D0
:1017900002F4405282F44C521A6008BD4800002006
:1017A0004C5C004008600040005C004010B5214BDC
:1017B000214A00205880D078204B4FF0FF3102287A
:1017C00099800BD0032813D001281BD19178C9B977
:1017D0001B489C1D04601220988014E0917889B900
:1017E000174903F118040C605221998052210BE033
:1017F0009178032906D803EB8101C96E1048016076
:101800000978998000210846B3F90440002C07DAD2
:101810000C4B1A6802F0300282F444721A6010BD58
:1018200093799C42C4BF054A9380BDE81040FFF7FE
:1018300049BF00BF50010020C00600204800002022
:1018400000070020005C004008B52B4B1B6813F418
:10185000006F42D0294B186800238005800D0CE0F2
:10186000590001F1804101F5C241096889B2D154A2
:10187000D218090A023351709BB28342204AEFD337
:1018800053780B2B22D8DFE803F00609210C210F37
:10189000122115181B1EFFF787FD1EE0FFF7C2FD82
:1018A0001BE0FFF7F5FD18E0FFF728FE15E0FFF756
:1018B0007DFF12E0FFF73EFE0FE0FFF755FE0CE064
:1018C000FFF7C0FE09E0FFF7DBFE06E00A4B1A68EF
:1018D00002F0300282F444721A600A4B80221A60CD
:1018E0004FF408425A60044B1A6802F4405282F4E2
:1018F0004C521A6008BD00BF005C00400C60004004
:10190000C0060020086000400A4A80234FF40841C6
:1019100013605160084943F23002086800EA02028D
:1019200082F44C5282F020020A60044A9370044A06
:101930001360704708600040005C004048000020D1
:101940004C5C0040144B1A6842F400021A60134BBE
:1019500040F201621A6001325A6001329A6001322B
:10196000DA600122DA63182300BF013BDBB2002BEF
:10197000FAD10B4AFF2113600A4B19604FF43C4324
:101980001360094B1A6842F4C0121A605A6842F494
:1019900080625A60FFF7B8BF1C100240045C004030
:1019A000405C0040445C004000E100E0104B00223D
:1019B0001A80104B196889B211F0100F01F00F0353
:1019C0000AD00BB9FFF740BF022B10D10A4B40F2EF
:1019D00002621A60FFF7D2BC0BB9FFF7C5BE012B3C
:1019E00005D1064B1A70064B40F201621A6070472F
:1019F00048000020445C0040085C004008090020CA
:101A0000045C0040074B1A6842F008021A601A682A
:101A100042F004021A60044B9B78802B01D000F046
:101A200013BE7047405C004048000020064B1A6817
:101A300022F008021A60054B1B8813F0010F02D038
:101A4000002000F009BE7047405C004050010020BB
:101A5000024B4FF400221A60704700BF80E200E0A2
:101A60000D4B10B51C6814F4004F01D0FFF79EFF1A
:101A700014F4805F01D0FFF7D9FF14F4006F01D098
:101A8000FFF7C0FF14F4806F01D0FFF73DFF024B5A
:101A900000221A6010BD00BF445C0040024B4FF4AE
:101AA00080621A60704700BF84E200E010B50E4CFF
:101AB000FFF720FC2378B3B10C48FFF78FF990B9FA
:101AC0000B4B4FF480721A604FF408425A60094A77
:101AD00043F23003116801EA030383F4585383F09F
:101AE00002031360207010BD0909002006080020C1
:101AF00028600040085C00400C480D490D4A92F0F7
:101B0000000F03D0043A83588B50FBD10A480B498D
:101B10004FF00002884202D040F8042BFAE74FF061
:101B20000000D0F800D0FEF789FD70476032000851
:101B30000000002050010000500100202C0E002069
:101B400070B4164B1878164B1A5C164B9A7218B371
:101B500000EB4003124AD3181A7C202A16D94FF002
:101B60001A034FF00001104D104C00EB40000C4EDA
:101B70003018EA54E25401F10101C9B203F1020341
:101B8000DBB24218127C202AF3D801E04FF01A038E
:101B9000054A1370054A137070BC704702FC0008B8
:101BA000000100204E000020E2000020C4000020C0
:101BB0002DE9F04385B0054604AC04F8011D20462C
:101BC000FEF7F6FC2046FEF7F3FC9DF80F104FF0F1
:101BD0000006009628464FF002024FF00303FEF77E
:101BE000F5FC9DF80F104FF00204009428462246A1
:101BF0004FF00303FEF7EAFC9DF80F104FF00307C8
:101C00000097284622462346FEF7E0FC9DF80F1079
:101C10000097284622463346FEF7D8FC9DF80F1061
:101C20000097284622466FF00103FEF7CFFC9DF88F
:101C30000F100094284622466FF00203FEF7C6FC00
:101C40009DF80F100096284622466FF00203FEF71B
:101C5000BDFC9DF80F106FF00109CDF800902846EB
:101C600022466FF00203FEF7B1FC9DF80F106FF0F3
:101C70000208CDF80080284622464B46FEF7A6FC17
:101C80009DF80F10CDF80080284622463346FEF717
:101C90009DFC9DF80F10CDF8008028462246234673
:101CA000FEF794FC9DF80F10CDF8009028462246D0
:101CB0003B46FEF78BFC05B0BDE8F0832DE9F04311
:101CC00085B0054604A800F8011DFEF771FC9DF8DB
:101CD0000F104FF00007009728464FF002021346FE
:101CE000FEF774FC9DF80F104FF00108CDF800804E
:101CF00028464FF002021346FEF768FC9DF80F10CD
:101D00004FF002040094284622462346FEF75EFC6C
:101D10009DF80F100094284622464346FEF756FCD5
:101D20009DF80F100094284622463B46FEF74EFCD5
:101D30009DF80F100094284622464FF0FF33FEF71F
:101D400045FC9DF80F100094284622466FF00103D1
:101D5000FEF73CFC9DF80F10CDF800802846224687
:101D60006FF00103FEF732FC9DF80F100097284634
:101D700022466FF00103FEF729FC9DF80F104FF08B
:101D8000FF39CDF80090284622466FF00103FEF798
:101D90001DFC9DF80F106FF00106009628462246A4
:101DA0003346FEF713FC9DF80F1000962846224696
:101DB0004B46FEF70BFC9DF80F1000962846224676
:101DC0003B46FEF703FC9DF80F100096284622467E
:101DD0004346FEF7FBFB9DF80F100096284622466F
:101DE0002346FEF7F3FB9DF80F10CDF80090284630
:101DF00022462346FEF7EAFB05B0BDE8F08300BFAC
:101E00002DE9F04182B005460C464FF000070097DF
:101E10004FF002024FF00103FEF7D8FB4FF001062E
:101E20000096284621464FF002023346FEF7CEFBCD
:101E30000096284621464FF002023B46FEF7C6FBBD
:101E40000096284621464FF002024FF0FF33FEF77E
:101E5000BDFB0097284621464FF002024FF0FF33AA
:101E6000FEF7B4FB4FF0FF38CDF80080284621463E
:101E70004FF002024346FEF7A9FBCDF8008028464A
:101E800021464FF002023B46FEF7A0FBCDF8008052
:101E9000284621464FF002023346FEF797FB02B078
:101EA000BDE8F08108B54FF002024FF0000300F0EA
:101EB000E1FB08BDF0B41C4B9B7893B11A4B5B79E6
:101EC0004BB1194B1B7A4BB1174BDD7A002D14BF68
:101ED0000425032507E04FF0010504E04FF002055B
:101EE00001E04FF0000511490A780F4E05EB45055A
:101EF00074190F4B02EB4207D819DF5D775545780F
:101F000065704FF00105A57084780A480470521975
:101F1000D2B20A7002EB42029B185B78FF2B04BF1F
:101F200000220A70F0BC7047100900200C09002044
:101F3000943100080D09002008B54FF00003054A50
:101F40001370054A937053711372D3729373FFF732
:101F5000B1FF08BD0C09002010090020F8B500F001
:101F60002FFC4FF00004134D134E2746621993784F
:101F700093B1092B01D197700EE003F10103DBB29D
:101F800093704FEA530303F1FF33DBB206EB830395
:101F90005B6D285D5178984704F103040F2CE5D15F
:101FA000064A137803F1FF33DBB213700BB9FFF766
:101FB00081FFF8BD10090020943100080D090020B0
:101FC0002DE9F0013A4A137803F10103DBB21370F3
:101FD000032B1BD14FF00002354B1A70354A137892
:101FE00003F10103DBB21370062B0FD14FF0000297
:101FF000304B1A70304A137803F10103DBB21370CF
:10200000032B03D14FF000022B4B1A702B4B2A4AA3
:1020100012782749097802EB42025218995C284A43
:1020200011704FF00700274A10604FF48010A2F59E
:1020300080621060C1EBC1014FEAC101C9B2224AFE
:1020400010781C4A127802EB420203EB42039B8990
:102050004FF0010606FA03F64FF000031A461B4D37
:102060004FF0A80404FB00F4DFF864C01F465FFAD9
:1020700083F84FEA52026018285C30421CBF62F0BD
:102080007F02D2B203F00700072806D14FEAD80832
:102090006FEA02020CF808203A4603F10103382BDC
:1020A00003D001F10101C9B2E1E7BDE8F0017047D9
:1020B0006F0B00202A0E00202B0E0020F8310008A4
:1020C0006E0B0020100C014072090020740B0020E0
:1020D000200E0020024B1A6842F001021A6070477D
:1020E000580002400C4B1B78ABB10C4B1B78012BFA
:1020F00008D013B1022B0ED109E04FF48032084B07
:102100001A6070474FF40032054B1A6070474FF465
:102110008022034B1A607047730900206E0B002069
:10212000100C01404FF01002044B1A60044B1B7856
:102130001BB94FF00702034B1A60704710080140AB
:1021400054010020100C01400D4B1B78012B03D0D3
:10215000032B01D0052B11D10A4B1A6842F0010262
:102160001A60094B1A78094B03EB8202084B1A607C
:10217000A3F10C031A6842F001021A60704700BF15
:102180002A0E0020300002406E0B0020140E0020AA
:102190002800024070B47A4A4FF480531360794BA0
:1021A0004FF4804119604FF000011160196003F194
:1021B00004031A6842F001021A60734DA3F57F63AD
:1021C0001D60724C03F104031C604FF00400A3F186
:1021D000080318606E4A42F2821313606D4B1E684A
:1021E00046F480561E60166846F00106166002F13D
:1021F0001C02156002F104021460A2F108021060D2
:10220000A2F1040242F2921010601C6844F40054DF
:102210001C60146844F0010414605F4C02F1300249
:10222000146002F104025D4C14604FF00704A2F147
:1022300008021460A2F104021060186840F4004023
:102240001860136843F001031360554B1A6842F499
:1022500080521A60534A136843F480431360524B10
:1022600040F28E301860186840F0040018604FF09B
:1022700003044E480460186840F0400018604C4B5E
:1022800040F28D301860186840F0040018604FF07C
:10229000020448480460186840F040001860136861
:1022A00043F0010313604FF014024FF080431A60B3
:1022B0004FF0010203F10C031A6003F104031960EB
:1022C0004FF0170203F118031A603B4B1B784BB910
:1022D0004FF0E602394B1A604FF00F0203F108038A
:1022E0001A6008E04FF01602344B1A604FF00F02EC
:1022F00003F108031A60274B1A6842F080521A60F3
:102300002F4A116841F0800111604FF015014FF024
:102310008042116002F5043202F11C02106840F0A4
:1023200002001060274A4FF0140010604FF00104C3
:1023300000F1804000F57E7004604FF0000400F171
:10234000040004604FF0170400F11800046040F22C
:10235000E7301D4C206004F108042060186840F04C
:102360000050186003F54773186840F4C0401860C7
:1023700011604FF48012154B1A6070BC704700BF9B
:102380000C100240101002400C300140140E0020CE
:102390001C00024000E100E00C380040200E00204C
:1023A000181002401C10024000300140043001406F
:1023B0000038004004380040540100202400004050
:1023C0000CE400E000040040240400401008014038
:1023D000084B1A6842F020021A6003F118031A68C9
:1023E00022F001021A604FF0040203F104031A60A4
:1023F000704700BF04000240084B1A6842F40072A4
:102400001A6003F12C031A6822F001021A604FF0DF
:10241000040203F104031A60704700BF0400024085
:10242000084B1A6842F400321A6003F154031A6828
:1024300022F001021A604FF0070203F104031A6050
:10244000704700BF0400024010B5214C2278214B98
:1024500003EB82031B6B9847237803F10103DBB284
:102460002370052B04BF002222704FF000021A4B8C
:102470001A601A4B1B78ABB9154B1B78022B0AD18B
:10248000174B1B7803EB4303124A02EB43031A8AF0
:10249000144B1A6010BD0F4AD31893F84420114B07
:1024A0001A6010BD0A4B1B78022B0AD10C4B1B780B
:1024B00003EB4303074A02EB4303DA89094B1A6033
:1024C00010BD044AD31893F84C20064B1A6010BD77
:1024D000710B0020F831000810000040540100206A
:1024E0002A0E00202C000040034B1A78034B33F8CF
:1024F0001220034B1A60704700000020CC2A00080D
:102500004001002010B54FF00003284A1360284A0C
:102510001078284A284C12F8011B71B101F1FF31E3
:10252000C9B202F8011C41B904F15C01C95C02F8AE
:10253000011C04F15401C95C084303F10103032B9E
:10254000E9D11B4B18701D4B9B686BB103F1FF3336
:102550001A4A936043B94FF49072184B9A60144B27
:10256000C2B242F008021A70144B1B685BB103F14F
:10257000FF33124A136033B9FFF7B6FF0C4B1A78DA
:1025800042F010021A700D4BDB686BB103F1FF33A0
:102590000A4AD36043B94FF09002084BDA60044B0B
:1025A0001A7842F020021A7010BD00BF10040040DB
:1025B0007109002044010020F8310008400100208A
:1025C00008B5FFF7B9FC4FF00102064B1A70064B35
:1025D0001B78022B1CBF054A13704FF00202024BFE
:1025E0001A7008BD280E0020720900206D0B002013
:1025F00008B5FDF751FF4FF00102064B1A70064B6C
:102600001B78022B1CBF054A13704FF00202024BCD
:102610001A7008BD56010020720900206D0B0020C1
:10262000054B1A78054B1A704FF00003044A1370DB
:10263000044A1370704700BF6D0B00207209002020
:10264000280E0020560100204FF00002014B1A70A6
:10265000704700BF7309002008B54FF00102044B1A
:102660001A7010B1FFF7ACFF08BDFFF7D9FF08BD26
:1026700073090020F0B44F285AD8002B2FD101F055
:10268000330101EB910101F00F012A4B5D5C2A4BF4
:102690001B5C4FF0A80404FB0234284E3555284C2F
:1026A000247804FB05F74FEA17174FF0A80505FB40
:1026B00002F5EB183F2F28BF3F27224EF754224B3D
:1026C000595C224B1B5CED181C48415504FB01F181
:1026D0004FEA11113F2928BF3F21715528E001F031
:1026E0003F05C1F38511144B1B5C4FF0A80404FB9C
:1026F0000234124E3555124C247804FB05F74FEA8C
:1027000017174FF0A80505FB02F5EB183F2F28BF60
:102710003F270C4EF7540D4B1B5CED1807484155F5
:1027200004FB01F14FEA11113F2928BF3F217155E8
:10273000F0BC7047D8300008EC2F00087409002066
:1027400028000020740B0020E8300008982F0008B3
:10275000F0B41548154900F1A80701F1A80600F5E5
:10276000A87501F5A8744FF00002134600F8013B6C
:1027700001F8013B07F8013B06F8013B05F8013B76
:1027800004F8013B02F10102D2B2A82AEED14FF0C7
:102790000003074A1370074A1370074A1370074A69
:1027A0001370F0BC704700BF740B00207409002048
:1027B0006F0B00202B0E00202A0E0020710B002032
:1027C000044B03F1A8014FF0000203F8012B8B42E8
:1027D000FBD17047C40C002010B54B2811D941B172
:1027E000104B114A1218147A1A7844EA02021A702D
:1027F00007E00C4B0C4A1218147D1A7804EA020206
:102800001A70084B1B780F2B0AD1492808D139B907
:10281000064B1B7813B1FFF703FF10BDFFF7D0FE87
:1028200010BD00BF700B0020F8310008280E0020FA
:1028300010B582B004460D4B19780D4A0D4B002996
:1028400018BF134647281B5C4FF07F0200920A48CE
:1028500087BF0B21B02209219022FEF7E0FA204623
:102860004FF00101FFF7B8FF02B010BD270E0020A6
:10287000482F0008F82E0008BC05002010B582B0D3
:1028800004460D4B19780D4A0D4B002918BF13460D
:1028900047281B5C4FF0000200920A4887BF0B21BB
:1028A000B02209219022FEF7BAFA20464FF000012B
:1028B000FFF792FF02B010BD270E0020482F00083E
:1028C000F82E0008BC0500202DE9F04F83B01D4B09
:1028D00001934FF0000B1C4B03F15408DFF86C9090
:1028E000DFF86CA0019B13F8017F0193164B03F1F5
:1028F0005C055C4619F8046004F10104E4B215F8C3
:10290000013D1F4208D00AEB0600FEF72FFC68B11C
:102910003046FFF78DFF09E00AEB06004FF0280173
:10292000FEF73DFC10B13046FFF7A8FF4545E1D169
:102930000BF1080B5FFA8BFBBBF1600FD2D103B038
:10294000BDE8F08F130E0020F8310008F8300008C1
:102950002009002008B5FFF7B7FF08BD43F60C03B8
:10296000C4F201031A88F0B412F4005212D00A28FB
:1029700051D043F60002C4F20102B2F800C01CF0CC
:10298000800FFAD043F6040380B2C4F2010318802A
:10299000F0BC704741F21804C4F20204266840F605
:1029A000040146F0040727602568C4F2010145F0E0
:1029B00001062660276843F6100647F48045256027
:1029C0000F6843F6140527F0F0040C600F6843F617
:1029D000080447F0B0070F600F684FF00C0C27F4A5
:1029E00070670F600F68C4F2010647F480670F60DC
:1029F000C4F2010540F24131C4F201043280A3F86F
:102A000000C02A8021801A880A281FFA82FC4CF410
:102A100000511980ADD143F60C03C4F201031A88AA
:102A200012F400520FD043F60002C4F201021388E0
:102A300013F0800FFBD043F60401C4F201014FF004
:102A40000D020A8095E741F21804C4F202042668D8
:102A500040F6040146F0040727602568C4F201012E
:102A600045F001062660276843F6100647F48045C6
:102A700025600F6843F6140527F0F0040C600F681A
:102A800043F6080447F0B0070F600F6840F2413C7E
:102A900027F470670F600F68C4F2010647F480677F
:102AA0000F60C4F201054FF00C01C4F20104328042
:102AB00019802A80A4F800C01A8891B241F4005C01
:102AC000A3F800C0AFE700BF101C70472001DC0076
:102AD000AC009000740062005C0000000000040084
:102AE000050008000D00120017001C001E00200049
:102AF000220027002C003000340038003D00420046
:102B000045004A004F00540059005E006300680011
:102B10006D007100750079007D00810086008B00DA
:102B2000900095009A009F00A400A900AE00B30099
:102B3000B600BA00BF00C400C900CE00D300D80060
:102B4000DD00E200E700EC00F100F600FB00000110
:102B500005010A010D01120115011A011F012101D0
:102B600026012B01300135013A013E0143014801A4
:102B70004A014D015101530158015D016201670194
:102B80006C017001750178017D01820187018C0162
:102B90009101960199019A019D01A101040103058A
:102BA00005050502020205050404040505030505E3
:102BB00005050505050504040404040505050505CA
:102BC00005050505050304050505050505050505B8
:102BD00005050505050505030503050502050505AC
:102BE00005050405050203040205050505050405A0
:102BF00003050505050505030103040500000000A4
:102C0000FBE000E028FE28FE282454FE5448C4C8F7
:102C10001026466C92926C0A20C07C82827C2838F6
:102C20007C382810107C10100005060010101010C1
:102C30000006060004081020407C8282827C42FE4E
:102C4000024E92929262448292926C182848FE0838
:102C5000E4A2A2A29C7C9292924C808698A0C06C26
:102C60009292926C649292927C00363600003536D5
:102C70000010284482282828288244281040808A6E
:102C800090607C8292AA780638C83806FE929292AA
:102C90006C7C82828244FE82824438FE92929282CE
:102CA000FE909090807C8282929EFE101010FE8298
:102CB000FE82040282FCFE10284482FE020202020E
:102CC000FE403040FEFE60100CFE7C8282827CFE64
:102CD000909090607C828A847AFE9098946264B22C
:102CE00092924C8080FE8080FC020202FCE018067A
:102CF00018E0F00E300EF0C6281028C6C0201E20A6
:102D0000C0868A92A2C2FE8282402010080482827B
:102D1000FE20408040200202020202C020042A2A33
:102D20002A1EFE2222221C1C222222221C222222B5
:102D3000FE1C2A2A2A1A107E9090182525253EFE70
:102D40002020201EBC020201BEFE081422FC023E0E
:102D5000201E201E3E2020201E1C2222221C3F243A
:102D60002424181C2222243F3E102020122A2A2A22
:102D700024207C223C0202043E300C020C30380637
:102D80003806382214081422380505053E22262A62
:102D90003222106C82FF826C104080408038286C98
:102DA00028100000000101020102030405060708C3
:102DB000500A0B0C0D0E0F10115013141516171886
:102DC000191A501C1D1E1F2021222350252627289A
:102DD000292A2B2C502E2F303132333435503738AE
:102DE000393A3B3C3D3E50404142434445464750C2
:102DF000494A4B4C4D4E4F505000000050000102CC
:102E0000030405060750090A0B0C0D0E0F10501293
:102E100013141516171819501B1C1D1E1F202122D4
:102E2000502425262728292A2B502D2E2F303132A9
:102E3000333450363738393A3B3C3D503F404142BD
:102E4000434445465048494A4B4C4D4E50000000C3
:102E500048494A4B4C4D4E4F5000010203040506B1
:102E60000708090A0B0C0D0E0F101112131415167A
:102E70001718191A1B1C1D1E1F202122232425266A
:102E80002728292A2B2C2D2E2F303132333435365A
:102E90003738393A3B3C3D3E5050505050505050DE
:102EA00050000000090A0B0C0D0E0F101112131424
:102EB00015161718191A1B1C1D1E1F20212223244A
:102EC00025262728292A2B2C2D2E2F30313233343A
:102ED00035363738393A3B3C3D3E3F40414243442A
:102EE000454647505050505050505050000102033A
:102EF0000405060750000000000102030405060750
:102F00000810111213141516171820212223242536
:102F10002627283031323334353637384041424362
:102F2000444546474850515253545556575860618E
:102F300062636465666768707172737475767778BA
:102F400068696A6B6C6D6E6F404142436061626399
:102F5000643C3D3E3F5C5D5E5F6538393A3B5859A5
:102F60005A5B6634353637545556576730313233ED
:102F700050515253682C2D2E2F4C4D4E4F692829FD
:102F80002A2B48494A4B6A24252627444546476B45
:102F900068696A6B6C6D6E6F1F578F275F972F671D
:102FA0009F1E568E265E962E669E1D558D255D951E
:102FB0002D659D1C548C245C942C649C174F870FAA
:102FC000477F073F77164E860E467E063E76154DA6
:102FD000850D457D053D75144C840C447C043C7482
:102FE000376FA7366EA6356D300000001B538B235C
:102FF0005B932B639B1A528A225A922A629A195126
:1030000089215991296199185088205890286098F1
:10301000134B830B437B033B73124A820A427A02AF
:103020003A7211498109417901397110488008408B
:1030300078003870346CA4336BA3326A300000001F
:103040003F404142363738392D2E2F302425262750
:103050001B1C1D1E12131415090A0B0C0001020380
:10306000434445463A3B3C3D3132333428292A2BF0
:103070001F202122161718190D0E0F100405060720
:1030800008111A232C353E470001020304050607E8
:10309000090A0B0C0D0E0F10121314151617181920
:1030A0001B1C1D1E1F2021222425262728292A2BF0
:1030B0002D2E2F3031323334363738393A3B3C3DC0
:1030C0003F4041424344454608111A232C353E47B0
:1030D00048494A4B4C4D4E4F00030B2E00050A2029
:1030E00000050E20000A142E000000000505050C46
:1030F000151513193F3F3F3F060F18212A333C4552
:10310000030C151E273039420009121B242D363FAF
:10311000484B4E5050505050071019222B343D460A
:10312000040D161F28313A43010A131C252E37407F
:10313000494C4F505050505008111A232C353E47DF
:10314000050E172029323B44020B141D262F38414F
:103150004A4D505050505050F07E000601F700008C
:10316000F000202900020408040309042603460095
:103170006F006300750073007200690074006500E1
:10318000200041002E0045002E0020004C0074005D
:10319000640000002830043633053C030307320284
:1031A000162304373003093102201305223001258C
:1031B00003053B31030232044013020A130628338D
:1031C000040303054513030C33061623013B0302D6
:1031D0000D30042B21032532023631050F30010A50
:1031E0000304463003FFFFFFA51E0008011E000870
:1031F000BD1C0008B11B0008000102010200020012
:10320000010000000000030001000500CC02BB002B
:1032100001001A00070004005C015B000200480086
:1032200013000300A4002B00C11F0008D5200008D4
:10323000E52000082521000849210008E60F1405B3
:103240000F000000160FC8050F000000010204085F
:103250001020408001053200FEFDFBF7EFDFBF7F4D
:10326000030000002020000000000000000000001B
:10327000000000000000000000000000000000004E
:10328000000000000000030010000000F07E0006B7
:10329000020020292000000000000000F7000000CC
:1032A000F0002029060000F7F4018000FFFF120162
:1032B0001001000000403512200000000102000152
:1032C00009020000020100801E0904000000010143
:1032D00000030924010001090001010904010002A1
:1032E0000103000307240100012E0006240201014E
:1032F00000092403010201010100070581034000C8
:103300000105250101020705020340000105250111
:1033100001010000683100086C310008C400002081
:10332000E200002018034C00610075006E0063008D
:10333000680070006100640020005300200020003D
:10334000200018034C00610075006E0063006800E7
:103350007000610064002000530020002000200065
:10336000202122232425262728292A2B2C2D2E2FE5
:1033700000000032200033200034200035200036C9
:103380002000372000382000392000313000313152
:103390000031320031330031340031350031360034
:1033A0002001000001031E00200100009000000029
:04000005080002707D
:00000001FF
